:100000000C9434000C943E000C943E000C943E0082
:100010000C943E000C943E000C943E000C943E0068
:100020000C943E000C943E000C943E000C943E0058
:100030000C943E000C943E000C943E000C943E0048
:100040000C943E000C943E000C943E000C943E0038
:100050000C943E000C943E000C943E000C943E0028
:100060000C943E000C943E0011241FBECFEFD8E04C
:10007000DEBFCDBF0E9440000C9483000C940000B2
:100080001092C50087E68093C40088E18093C10088
:100090008EE08093C2008FEF84B98091C00087FF0B
:1000A000FCCF8091C600873719F415B82A9AF5CF8E
:1000B000833719F415B8299AF0CF843619F415B896
:1000C000289AEBCF813619F415B82B9AE6CF15B8DC
:1000D000E4CF9093C5008093C40088E18093C10071
:1000E0008EE08093C2000895982F8091C00085FF14
:1000F000FCCF9093C60008958091C00087FFFCCF8D
:0A0100008091C6000895F894FFCF27
:00000001FF
